71103                  0000100002250124         11825429 1J                                                                     
7120313533302   11825429      18011910450000000000000001 000011825429      0282033787                 2Routen-L18011911300000   
7130300021910180119AP4E 03                40    05400000000                 15445489A541                                        
71403A1567350110           48200TDR3SGTN         0000000000012000ST0000000000000      001P               S              0001    
71802000219100004675026                                                                                                         
7158718020002191000046749880004674990000467499200046749930004674995000467500400046750130004675015000467501800046750200004675021 
71902000000100000010000001000000500000000000000000001100000010000000                                                            